:020000040800F2
:10000000600D0020D95A0008850200088702000808
:100010008B0200088F020008930200080000000015
:10002000000000000000000000000000970200082F
:1000300099020008000000009B0200089D020008D1
:10004000F35A0008F35A0008F35A0008F35A00085C
:10005000F35A0008F35A0008F35A0008F35A00084C
:10006000F35A0008F35A0008F35A0008F35A00083C
:10007000F35A0008F35A0008F35A0008F35A00082C
:10008000092D0008F35A0008F35A0008F35A000833
:10009000DB2B0008F35A0008F35A0008F35A000853
:1000A000F35A0008F35A0008F35A0008F35A0008FC
:1000B000F35A0008F35A0008F35A0008F35A0008EC
:1000C000F35A0008F35A0008F35A0008F35A0008DC
:1000D000F35A0008F35A0008F35A0008F35A0008CC
:1000E000F35A0008F35A0008F35A0008F35A0008BC
:1000F000F35A0008F35A0008F35A0008F35A0008AC
:10010000F35A0008F35A0008F35A0008F35A00089B
:100110008D3B0008F35A0008F35A0008F35A000810
:10012000F35A0008F35A0008F35A0008F35A00087B
:10013000F35A0008F35A0008F35A0008F35A00086B
:1001400037320008F35A0008F35A0008F35A00083F
:10015000F35A0008F35A0008F35A0008F35A00084B
:10016000F35A0008F35A0008F35A0008F35A00083B
:10017000F35A0008F35A0008F35A0008F35A00082B
:10018000F35A0008F35A000800F002F800F064F88F
:100190000AA090E8000C82448344AAF10107DA45E2
:1001A00001D100F059F8AFF2090EBAE80F0013F0D0
:1001B000010F18BFFB1A43F0010318473CD400009D
:1001C0005CD400000A444FF0000C10F8013B13F01F
:1001D000070408BF10F8014B1D1108BF10F8015BA0
:1001E000641E05D010F8016B641E01F8016BF9D193
:1001F00013F0080F1EBF10F8014BAD1C0C1B09D1EA
:100200006D1E58BF01F801CBFAD505E014F8016B5B
:1002100001F8016B6D1EF9D59142D6D370470000ED
:100220000023002400250026103A28BF78C1FBD8FF
:10023000520728BF30C148BF0B60704764290AF0DD
:10024000018378290AF03A83002070471FB50CF02B
:1002500066F91FBD10B510BD0AF002FE1146FFF78A
:10026000F5FF00F008F80AF020FE03B4FFF7F2FFF4
:1002700003BC06F05FFF00F097F801E000F023F9FF
:10028000FCE70000704700BFFEE700BFFEE700BFCD
:10029000FEE700BFFEE770477047704702480068FE
:1002A000401C01490860704700000020F0EE401A31
:1002B000F4EEE01AF1EE10FA02D2B0EE600A7047E6
:1002C000F4EEC11AF1EE10FA02DDB0EE410AF6E7E3
:1002D000B0EE610AF3E703468B4201DA0846704745
:1002E000934201DD1046FAE71846F8E703468B42D1
:1002F00001DA08467047934201DD1046FAE71846D6
:10030000F8E703468B4201DA08467047934201DD65
:100310001046FAE71846F8E71FB5684604F04FF9AB
:10032000FB490098B0FBF1F0FA4908601FBD00BF1F
:10033000F94802684FF0E0208369F748006882427C
:10034000F6D1F448006800EB4001C1EBC010C3EBEC
:10035000C000F0490968B0FBF1F002EB4201C1EBCB
:10036000C21100EBC1000021704730B50446FFF711
:10037000DEFF054600BFFFF7DAFF421B61F1000117
:10038000121B71F10001F6D330BD10B5044603E035
:100390004FF47A70FFF7E9FF2000A4F10104F7D1D0
:1003A00010BDDD480068704770B54FF4A06003F0E1
:1003B00043FE02F0F9FCFFF7AFFFD84800684FF4A6
:1003C0007A72B0FBF2F1481EB0F1807F00D31BE0DF
:1003D000481E4FF0E022506150170F22002807DA24
:1003E00013071D0ECE4B00F00F04241F1D5503E014
:1003F00013071C0ECB4B1C5400BF00204FF0E02213
:1004000090610720106100BF00F0F9FC02F0A0FC31
:1004100007F057F802F0EFFD03F026FB02F042FB75
:1004200002F064FE00F0EBFC01F0A8FE02F076F9A9
:1004300002F0C6FADFEDBC0AB7EE000ABB4803F0D3
:1004400090FADFEDBB0AB7EE000ABA4803F089FA6A
:10045000DFEDB90AB7EE000AB84803F082FADFED23
:10046000B40AB7EE000AB64803F07BFAF3EE040ACA
:10047000B7EE000AB34803F074FA1FE0FFF757FF26
:10048000B149086008460068B0490968401AB04997
:10049000884213DBAC4800680844AC490860AD48AA
:1004A0000068401CAB49086008460068032805DB6B
:1004B0000020A94908700A20A649086009F03FF900
:1004C0000028DBD170BD0EB5002002900190FFF72F
:1004D0002EFFA249086008460068A1490968401A31
:1004E00005D49E48006800F57A709D4908609B48D5
:1004F00000689C490968401A7ED49848006800F555
:10050000FA609849086002AA974901A807F087F89D
:10051000964A9749974809F065F9944890ED000A82
:10052000BDEEC00A10EE100A00B293490880BDF972
:1005300008201921002003F033F80290BDF90800CB
:1005400000EE100AB8EEC00A7C4803F027FABDEEB0
:10055000C00A10EE100A00B20290BDF908008749E7
:100560000880BDF904201921002003F019F801903A
:10057000BDF9040000EE100AB8EEC00A6D4803F0A1
:100580000DFABDEEC00A10EE100A00B20190BDF9DE
:1005900004007B4908807B480088B0F5FA7F0FDBB8
:1005A0000020784908800120774908706F4890ED55
:1005B000000A764880ED520AB0F8D410A0F8D8109E
:1005C00071480078012871D17149886B804703F028
:1005D00035FB6B48B0F900206848B0F90010664858
:1005E000B0F9000001F0E8FF694890F82D000128FB
:1005F0007ED16849086800E008E18047002000904B
:10060000654890ED0C0AB1EE400ABDEEC00A10EE4E
:10061000100A03B25F4890ED0D0ABDEEC00A10EE5D
:10062000100A01B200224FF4007002F0D6FD5748C4
:100630000078D8B95549886F80475449D1F8E80007
:100640008047524A92ED300AB1EE400ABDEEC00A30
:1006500010EE102A11B24D4A92ED150ABDEEC00AF5
:1006600010EE102A10B201F0A7FCD5E04748007840
:1006700001281CD14549886F80474449D1F8500171
:100680008047424A92ED4C0AB1EE400ABDEEC00AE4
:1006900010EE102A11B23D4A92ED150ABDEEC00AC5
:1006A00010EE102A10B201F087FCB5E0AFE03B4835
:1006B0000078012874D13549D1F80C0280473349BC
:1006C000D1F8B0018047314A92ED7E0AB1EE400A7E
:1006D000BDEEC00A10EE102A11B22C4A92ED670A44
:1006E000BDEEC00A10EE102A10B201F065FC00E069
:1006F00075E02648B0F86810A0F86C1090ED510A2B
:1007000080ED520AB0F8D410A0F8D81084E047E089
:1007100040420F000400002000000020780200206A
:1007200018ED00E000E400E00000C843C80200202B
:1007300000001644580300200000484388030020AE
:1007400028030020F80200200800002038000020C4
:10075000A086010030000020340000203C00002072
:100760004000002044000020180000202400002049
:100770001C000020200000202C0000201A00002077
:10078000160000204C0000204E000020F403002042
:10079000B8030020380600200406002030020020A4
:1007A0002448007890BB2449886F80472249D1F8BB
:1007B000E8008047204A92ED300AB1EE400ABDEED3
:1007C000C00A10EE102A11B21B4A92ED150ABDEEB6
:1007D000C00A10EE102A10B201F0EEFB1CE0164821
:1007E000B0F86810A0F86C1090ED510A80ED520A34
:1007F000B0F8D410A0F8D810002001F0C4FF0021F8
:10080000084601F0D9FB002002F02BF904E00B4868
:100810000088401C0949088009480068094909689E
:10082000401A06D4064800684CF250310844054985
:1008300008600EBD30020020F40300204C000020B0
:100840003C0000204800002010B5002107E04AF2DB
:10085000104200BF1300A2F10102FBD1491C8142EA
:10086000F5D310BD10B52DED048BF948008802B208
:100870000A214FF4806002F093FEA0F5806000EE44
:10088000100AB8EEC00ADFEDF30A80EE201AB0EECF
:10089000418AEF48408802B20A214FF4806002F09A
:1008A0007FFEA0F5806000EE100AB8EEC00ADFED12
:1008B000E90A80EE201AF0EE418AE548808802B20B
:1008C0000A214FF4806002F06BFEA0F5806000EE1C
:1008D000100AB8EEC00ADFEDDF0A80EE201AB0EE93
:1008E000419ADB48C08802B20A214FF4806002F0CE
:1008F00057FEA0F5806000EE100AB8EEC00ADFEDEA
:10090000D50A80EE201AF0EE419AD148007AD249F9
:100910000870CF48407AD1490870CF480078012844
:1009200014D1CD480078CE49097888422BD0CD48E3
:1009300090F84500012804D10021CA4880F84510EC
:1009400021E00121C74880F845101CE0C24800782A
:10095000032803D10020C349888014E0C14880796E
:1009600070B9BD480078BE49097888420BD0BD48AF
:10097000C08F45F6FD71084401B2BA48C18702E054
:100980000A20B8498880B5480078012815D1002090
:10099000B5490870B1480078B4490978884208D050
:1009A000B148B0F8D410A0F8D810B0F86810A0F88A
:1009B0006C100020AB49887132E0A8480078032809
:1009C00015D10120A8490870A4480078A7490978E2
:1009D000884208D0A44890ED510A80ED520AB0F840
:1009E0006810A0F86C1001209E49887118E0022060
:1009F0009D490870994800789C49097888420CD034
:100A00009948B0F8D410A0F8D81090ED510A80EDB4
:100A1000520AB0F86810A0F86C1000209149887153
:100A20009148B0F96C0000EE100AB8EEC00AF2EE80
:100A30000E0A08EEA00ABDEEC00A10EE100A01B2BE
:100A40008948A0F86C10B0F96C00B0F5965F05DB32
:100A50004FF496518448A0F86C1009E08248B0F930
:100A60006C0040F6D861884202DC7F48A0F86C1028
:100A70007D48B0F86C007E4908807B48007880BBD8
:100A80007948B0F9D80000EE100AB8EEC00ADFEDE0
:100A9000790A08EE200ABDEEC00A10EE100A01B273
:100AA0007148A0F8D810B0F9D800B0F5005F0ADBA3
:100AB0006D48B0F8D800A0F5F850FF3801B26A4888
:100AC000A0F8D81090E06848B0F9D800002814DAEF
:100AD0006548B0F9D800002804DD6348B0F9D800B3
:100AE00004E00BE06048B0F9D800404241F6FF71E5
:100AF000081A01B25C48A0F8D81075E05A4800788E
:100B0000012837D1584890ED520AF1EE480AB0EE6C
:100B1000041A00EE810A80ED520A90ED520ADFEDD0
:100B2000560AB4EEE00AF1EE10FA0CDD90ED520A2E
:100B3000DFED520A30EE600ADFED4F0A30EE600A58
:100B400080ED520A50E0484890ED520ADFED4C0A21
:100B5000B4EEE00AF1EE10FA46D290ED520ADFED63
:100B6000470A30EE200ADFED440A30EEC00A80ED7D
:100B7000520A39E043480078F8B93B4890ED520AF0
:100B8000F1EE480AB0EE041A00EE810A80ED520A36
:100B900090ED520ADFED380AB4EEE00AF1EE10FAF9
:100BA0000CDD90ED520ADFED350A30EE600ADFED24
:100BB000320A30EE600A80ED520A15E02A4890EDC4
:100BC000520ADFED2F0AB4EEE00AF1EE10FA0BD272
:100BD00090ED520ADFED290A30EE200ADFED260AF9
:100BE00030EEC00A80ED520A1F48007802280BD070
:100BF0009FED250A29EE000ABDEEC00A10EE100A8C
:100C000000B22249C88002E000202049C8800020AC
:100C10001E49C88010480078114908700F480078B4
:100C200012490870BDEC048B10BD10B5084890F84F
:100C30002E0001282CD1FFF715FE0020044908637F
:100C4000012081F82D00002081F82E0042E00000F4
:100C5000B80300200000254452000020530000206B
:100C60005400002038060020F40300205500002026
:100C7000500000200000604266E633430000344329
:100C800066E633C33002002000C0DA4504060020C7
:100C90006E48006B801C6D4908630846006B19287C
:100CA00018D34FF48060088048808880C880032073
:100CB0000872487200204881002164488181C18106
:100CC00001744174002061494882192008630020A2
:100CD00081F82D0010BD10B55C48017D407D41EAD2
:100CE0000020C0F30A00594908800846407DC11021
:100CF0005648807D41EA4010C0F30A0053494880BD
:100D00000846807D81115148C07D41EA80014F48ED
:100D1000007E41EA8020C0F30A004C4988800846E2
:100D2000007E41104948407E41EAC010C0F30A00ED
:100D30004649C8800846407E00118008087208466F
:100D4000407EC0F3011048720846817EC07E41EAB1
:100D5000002000B23D4948810846017F407F41EABA
:100D6000002001B239488181817FC07F41EA0020A3
:100D700001B23648C18190F82010017490F821101A
:100D8000417490F8221090F8230041EA00202F4986
:100D900048820846007A01282CD00846007A0228AA
:100DA00028D00846007A032824D00120FFF74CFD04
:100DB000012080F3138800BF00BF00BF00BF00BF49
:100DC00000BFBFF34F8F00BF00BF00BF20480068C7
:100DD00000F4E0601F490843001D1D49086000BF82
:100DE00000BF00BFBFF34F8F00BF00BF00BF00BFF9
:100DF00000BFFDE70120154981F82E0010BD10B598
:100E000001F000FFAFF2311010494863AFF2E51076
:100E100088634FF48060088048808880C880012003
:100E200008720320487200210848017441740020B0
:100E300006494881002105488181C181002003497C
:100E40004882086381F82D0010BD0000B80300201F
:100E50000CED00E00000FA05014640F6D862914230
:100E600002DC40F2DA30A4E040F6D862914213DDB1
:100E700040F6D67291420FDC00EE101AF8EEC00A6E
:100E80009FEDF70A9FEDF71A01EE200ABDEEC00AAA
:100E900010EE102A10B28CE040F6D672914213DDAB
:100EA00040F6EE7291420FDC00EE101AF8EEC00A26
:100EB0009FEDED0A9FEDED1A01EE200ABDEEC00A8E
:100EC00010EE102A10B274E040F6EE72914212DD7C
:100ED000B1F57F6F0FDC00EE101AF8EEC00A9FED3F
:100EE000E40A9FEDE41A01EE200ABDEEC00A10EEFE
:100EF000102A10B25DE0B1F57F6F13DD40F6F67297
:100F000091420FDC00EE101AF8EEC00A9FEDDA0AEB
:100F10009FEDDA1A01EE200ABDEEC00A10EE102A8B
:100F200010B246E040F6F672914212DD921C9142F8
:100F30000FDC00EE101AF8EEC00A9FEDD10A9FED0B
:100F4000D11A01EE200ABDEEC00A10EE102A10B22E
:100F50002FE040F6F872914213DD41F2A302914274
:100F60000FDC00EE101AF8EEC00A9FEDC70A9FEDE5
:100F7000C71A01EE200ABDEEC00A10EE102A10B208
:100F800017E041F2A302914212DDB1F5965F0FDC4A
:100F900000EE101AF8EEC00A9FEDBD0A9FEDBD1AD3
:100FA00001EE200ABDEEC00A10EE102A10B200E0D9
:100FB000B948704710B52DED028BB84890F8540130
:100FC00000287DD1B648D0F80310B448C0F8741199
:100FD00090ED5D0AB0EE401ADFEDB20A9FEDB20A65
:100FE00002F0C3FAAD4880ED5D0AB0F96800B0F5D3
:100FF000965F05DB9FEDAC0AA84880ED5D0A0BE02B
:10100000A648B0F9680040F6D861884204DC9FED3C
:10101000A60AA24880ED5D0AA048B0F96800B0F5C4
:10102000965F00DA04E09FEDA00A9C4880ED5D0A1F
:101030009FED9E8A994890ED620AD0ED5D0A30EEF0
:10104000200A80ED620AD0ED631AB0EE611AD0ED8D
:10105000631AF1EE611AF0EE610AD0ED621AB0EE99
:10106000610AFFF723F98D4880ED620A90ED590A75
:10107000D0ED5D0A20EE200A80ED680AD0ED680A06
:10108000B0EE600A9FED8A1ADFED8A0AFFF70EF9CB
:10109000824880ED680A90ED5A0AD0ED620A20EE8F
:1010A000200A80ED690A90ED5D0AD0ED5F0A30EE0E
:1010B000600AD0ED5B0A20EE200A80ED6A0A00E0AB
:1010C000C9E0D0ED6A0AB0EE600A9FED7B1ADFED51
:1010D0007B0AFFF7EBF8714880ED6A0A90ED680A29
:1010E000D0ED690A30EE200AD0ED6A0A30EE200A0F
:1010F00080ED6B0A90ED6B0A20EE080AF7EE000A0D
:1011000070EEC80A6E4890ED001A00EE810A63483E
:1011100080ED6B0AD0ED6B0AB0EE600A9FED691AA4
:10112000DFED690AFFF7C2F85C4880ED6B0A90EDCD
:101130006B0A634880ED000A002008EE900A5749C8
:10114000B1F96800FFF788FE08EE900A5348D0ED29
:101150006B0AB0F96E0000EE100AB8EEC00A30EE6D
:10116000C00A4E4880ED5C0A90ED600AD0ED5C0A42
:1011700030EE200A80ED600AD0ED611AB0EE611AFF
:10118000D0ED611AF1EE611AF0EE610AD0ED601A4D
:10119000B0EE610AFFF78AF8404880ED600A90EDF2
:1011A000560AD0ED5C0A20EE200A80ED640AD0EDEC
:1011B000640AB0EE600A9FED451ADFED450AFFF7BD
:1011C00075F8364880ED640A90ED570AD0ED600A54
:1011D00020EE200A80ED650A90ED5C0AD0ED5E0AF3
:1011E00030EE600AD0ED580A20EE200A80ED660A43
:1011F000D0ED660AB0EE600A9FED361ADFED360AD2
:10120000FFF754F8254880ED660A90ED640AD0EDAA
:10121000650A30EE200AD0ED660A30EE200A80ED35
:10122000670A90ED670AF8EEE80A30EE200A80EDD2
:10123000670AD0ED670AB0EE600A9FED241ADFED71
:10124000240AFFF733F8154880ED670A90ED5C0A31
:1012500080ED5E0A00E000BFBDEC028B10BD000017
:1012600000BE1646C6DC11C000E93147713D32C1EF
:1012700000384748000048C200D08447045685C162
:101280008076C7480000C8C2CDEC19465BB11FC0CC
:10129000336100467A3607C07CF8FFFFF403002074
:1012A000CA0600200AD7233C00000000CDCCCC3D6C
:1012B0000080BB450080BBC500007A4400007AC4B2
:1012C0007400002000803B4500803BC500409C45E9
:1012D00000409CC50000FA440000FAC410B5FE4866
:1012E00090F8540100287DD1FC48D0F8070000EEAA
:1012F000100AFB48D0ED000A30EE600AF64880ED97
:10130000740A90ED740AB0EE401A5FED1A0A1FEDF0
:101310001A0A02F02AF9F04880ED740A90ED790A71
:10132000D0ED740A30EE200A80ED790AD0ED7A1AF9
:10133000B0EE611AD0ED7A1AF1EE611AF0EE610AA0
:10134000D0ED791AB0EE610AFEF7B0FFE24880ED09
:10135000790A90ED740AD0ED790A20EE200AB5EEF4
:10136000C00AF1EE10FA1ED290ED7A0AB2EE041A1B
:10137000C0EE010A90ED790AB5EEC00AF1EE10FA5E
:1013800002DD90ED790A04E0D34890ED790AB1EEE0
:10139000400AF4EEC00AF1EE10FA04D21FED3E0A44
:1013A000CD4880ED790ACC4890ED700AD0ED740AF2
:1013B00020EE200A80ED7F0AD0ED7F0AB0EE600AB1
:1013C0001FED451A5FED450AFEF770FFC24880ED3C
:1013D0007F0A90ED710AD0ED790A20EE200A80EDA7
:1013E000800A00E00BE190ED740AD0ED760A30EE51
:1013F000600AD0ED720A20EE200A80ED810AD0ED5D
:10140000810AB0EE600A1FED541A5FED540AFEF730
:101410004DFFB14880ED810A90ED7F0AD0ED800A42
:1014200030EE200AD0ED810A30EE200A80ED820AEB
:10143000D0ED820AB0EE600A1FED631A5FED630A19
:10144000FEF734FFA44880ED820AA64890ED000A1A
:10145000A348D0ED000A30EE600AA348D0ED000AA0
:1014600020EE200AA148D0ED000A9D4890ED001A18
:1014700070EE810A9E4890ED001A01EE200A9D4808
:1014800080ED000A944890ED820A9A48D0ED000A57
:1014900030EE200ABDEEC00A10EE100A00B29649E6
:1014A00008808D4890ED820A9248D0ED000A70EED7
:1014B000200A8948B0F94C0100EE100AB8EEC00AC3
:1014C00030EEC00A844880ED730A90ED770AD0EDC3
:1014D000730A30EE200A80ED770AD0ED781AB0EE6C
:1014E000611AD0ED781AF1EE611AF0EE610AD0EDD2
:1014F000771AB0EE610AFEF7D9FE774880ED770AD9
:1015000090ED730AD0ED770A20EE200AB5EEC00AFE
:10151000F1EE10FA1ED290ED780AB1EE041AC0EE88
:10152000010A90ED770AB5EEC00AF1EE10FA02DD7D
:1015300090ED770A04E0684890ED770AB1EE400A32
:10154000F4EEC00AF1EE10FA04D21FEDA90A6248C7
:1015500080ED770A604890ED6D0AD0ED730A20EEB9
:10156000200A80ED7B0AD0ED7B0AB0EE600A1FED09
:10157000A91A5FEDA90AFEF799FE574880ED7B0A8C
:1015800090ED6E0AD0ED770A20EE200A80ED7C0AFD
:1015900090ED730AD0ED750A30EE600AD0ED6F0A57
:1015A00020EE200A80ED7D0AD0ED7D0AB0EE600AC3
:1015B0001FEDB81A5FEDB80AFEF778FE464880EDD9
:1015C0007D0A90ED7B0AD0ED7C0A30EE200AD0ED4A
:1015D0007D0A30EE200A80ED7E0AD0ED7E0AB0EE64
:1015E000600A1FEDC61A5FEDC60AFEF75FFE3A48B5
:1015F00080ED7E0A90ED730A80ED750A00E000BF71
:1016000010BD10B52DED028B3348B0F9D810B0F9EC
:10161000D400081A00EE100AB8EEC00A2E4880ED79
:10162000260A90ED260A5FEDD70AB4EEE00AF1EE45
:1016300010FA11DDB0F9D80041F6FF71091A2648F9
:10164000B0F9D4000844404200EE100AB8EEC00AD7
:10165000214880ED260A19E01F4890ED260A5FED2B
:10166000E40AB4EEE00AF1EE10FA0FD2B0F9D400B9
:1016700041F6FF71091A1848B0F9D800084400EE85
:10168000100AB8EEC00A144880ED260A124890ED00
:101690002B0AD0ED260A30EE200A80ED2B0AD0ED81
:1016A0002C1AB0EE611AD0ED2C1AF1EE611AF0EEA0
:1016B000610AD0ED2B1AB0EE610AFEF7F7FD06487D
:1016C00080ED2B0A90ED260AD0ED2B0A20EE200AA1
:1016D000B5EEC00A12E00000F4030020CA060020A4
:1016E0004002002034020020600000203802002068
:1016F00064000020680000205E000020F1EE10FA77
:101700001ED290ED2C0AB2EE041AC0EE010A90ED42
:101710002B0AB5EEC00AF1EE10FA02DD90ED2B0AAD
:1017200004E0FE4890ED2B0AB1EE400AF4EEC00A48
:10173000F1EE10FA04D29FEDFA0AF84880ED2B0A78
:10174000F64890ED220AD0ED260A20EE200A80ED20
:10175000310AD0ED310AB0EE600A9FEDF21ADFEDEA
:10176000F20AFEF7A3FDED4880ED310A90ED230A61
:10177000D0ED2B0A20EE200A80ED320A90ED260AE9
:10178000D0ED280A30EE600AD0ED240A20EE200ABF
:1017900080ED330AD0ED330AB0EE600A9FEDE31A14
:1017A000DFEDE30AFEF782FDDC4880ED330A90EDC1
:1017B000310AD0ED320A30EE200AD0ED330A30EE95
:1017C000200A80ED340AD0ED340AB0EE600A9FEDB5
:1017D000D51ADFEDD50AFEF769FDD04880ED340A51
:1017E00090ED260A80ED280A90ED340A80ED390A42
:1017F0009FEDCB0AB0EE408AD0ED390ACD48B0F962
:10180000000000EE100AB8EEC00A30EEC00ACA4866
:10181000D0ED000A20EE200AB0EE408A9FEDC71AF4
:10182000DFEDC70AB0EE480AFEF740FDB0EE408A91
:10183000BA4890ED390ABDEEC00A10EE100A00B2A7
:10184000BC490880B54890ED390AD0ED370A30EE32
:10185000600A80ED250A90ED290AD0ED250A30EEC8
:10186000200A80ED290AD0ED2A1AB0EE611AD0EDD7
:101870002A1AF1EE611AF0EE610AD0ED291AB0EEE3
:10188000610AFEF713FDA54880ED290A90ED250AAF
:10189000D0ED290A20EE200AB5EEC00AF1EE10FACA
:1018A0001ED290ED2A0AB1EE041AC0EE010A90EDA4
:1018B000290AB5EEC00AF1EE10FA02DD90ED290A10
:1018C00004E0964890ED290AB1EE400AF4EEC00A11
:1018D000F1EE10FA04D29FED920A904880ED290AA9
:1018E0008E4890ED1F0AD0ED250A20EE200A80EDEB
:1018F0002D0AD0ED2D0AB0EE600A9FED921ADFEDB1
:10190000920AFEF7D3FC854880ED2D0A90ED200A5F
:10191000D0ED290A20EE200A80ED2E0A90ED250A4E
:10192000D0ED270A30EE600AD0ED210A20EE200A21
:1019300080ED2F0AD0ED2F0AB0EE600A9FED7B1AE2
:10194000DFED7B0AFEF7B2FC744880ED2F0A90EDC4
:101950002D0AD0ED2E0A30EE200AD0ED2F0A30EEFF
:10196000200A30EE080A80ED300AD0ED300AB0EEE1
:10197000600A9FED741ADFED740AFEF797FC674862
:1019800080ED300A90ED250A80ED270ABDEC028B30
:1019900010BD10B52DED028B604890ED520AD0EDD0
:1019A000510A30EE600A80ED420A90ED420ADFED06
:1019B000670AB4EEE00AF1EE10FA08DD90ED420A93
:1019C000DFED630A30EE600A80ED420A11E0534811
:1019D00090ED420ADFED5F0AB4EEE00AF1EE10FA94
:1019E00007D290ED420ADFED5A0A30EE200A80ED70
:1019F000420A4A4890ED470AD0ED420A30EE200AEA
:101A000080ED470AD0ED481AB0EE611AD0ED481AC1
:101A1000F1EE611AF0EE610AD0ED471AB0EE610AFC
:101A2000FEF744FC3D4880ED470A90ED420AD0EDB8
:101A3000470A20EE200AB5EEC00AF1EE10FA1ED2D7
:101A400090ED480AB2EE041AC0EE010A90ED470A82
:101A5000B5EEC00AF1EE10FA02DD90ED470A04E09F
:101A60002E4890ED470AB1EE400AF4EEC00AF1EEBE
:101A700010FA04D29FED2A0A284880ED470A274829
:101A800090ED3E0AD0ED420A20EE200A80ED4D0A8C
:101A9000D0ED4D0AB0EE600A9FED221ADFED220A6A
:101AA000FEF704FC1D4880ED4D0A90ED3F0AD0ED95
:101AB000470A20EE200A80ED4E0AD0ED481AB0EE1B
:101AC000611AD0ED481AF1EE611AF0EE610AD0ED1C
:101AD0004E1AB0EE610AFEF7E9FB104880ED4E0A9F
:101AE00090ED420AD0ED440A30EE600AD0ED400A93
:101AF00020EE200A80ED4F0AD0ED4F0AB0EE600ACA
:101B00009FED0A1ADFED0A0AFEF7D0FB034880EDCD
:101B10004F0A90ED4D0AD0ED4E0A1DE0F40300206F
:101B2000000000000080BB450080BBC50000FA44F7
:101B30000000FAC4700000205800002000803B45DF
:101B400000803BC500409C4500409CC500003443DC
:101B50000000B443000034C330EE200AD0ED4F0A39
:101B600030EE200A80ED500AD0ED500AB0EE600A47
:101B70001FED141A5FED140AFEF798FBFE4880ED86
:101B8000500A90ED420A80ED440A90ED500AB1EE01
:101B9000400ABDEEC00A10EE100A01B2F648A0F8E5
:101BA0004E111FED210AB0EE408AB0F94E01F34903
:101BB000B1F90010401A00EE100AB8EEC00AF04861
:101BC000D0ED000A20EE200AB0EE408A1FED251A63
:101BD0005FED250AB0EE480AFEF768FBB0EE408ADA
:101BE000E548B0F84E01E5490880E348B0F94E11E8
:101BF000B0F94C01081A00EE100AB8EEC00ADE482F
:101C000080ED410A90ED450AD0ED410A30EE200A00
:101C100080ED450AD0ED461AB0EE611AD0ED461AB5
:101C2000F1EE611AF0EE610AD0ED451AB0EE610AEC
:101C3000FEF73CFBD04880ED450A90ED410AD0ED1F
:101C4000450A20EE200AB5EEC00AF1EE10FA1ED2C7
:101C500090ED460AB1EE041AC0EE010A90ED450A75
:101C6000B5EEC00AF1EE10FA02DD90ED450A04E08F
:101C7000C14890ED450AB1EE400AF4EEC00AF1EE1B
:101C800010FA04D21FED5A0ABB4880ED450ABA4843
:101C900090ED3B0AD0ED410A20EE200A80ED490A82
:101CA000D0ED490AB0EE600A1FED5A1A5FED5A0AEC
:101CB000FEF7FCFAB04880ED490A90ED3C0AD0ED01
:101CC000450A20EE200A80ED4A0A90ED410AD0ED47
:101CD000430A30EE600AD0ED3D0A20EE200A80ED86
:101CE0004B0AD0ED4B0AB0EE600A1FED701A5FEDA3
:101CF000700AFEF7DBFAA04880ED4B0A90ED490A26
:101D0000D0ED4A0A30EE200AD0ED4B0A30EE200A20
:101D100030EE080A80ED4C0AD0ED4C0AB0EE600AB5
:101D20001FED781A5FED780AFEF7C0FA924880ED51
:101D30004C0A90ED410A80ED430ABDEC028B10BDC8
:101D400010B52DED028B8C48B0F96C10B0F968001D
:101D5000081A00EE100AB8EEC00A874880ED0B0A98
:101D600090ED100AD0ED0B0A30EE200A80ED100A3B
:101D7000D0ED111AB0EE611AD0ED111AF1EE611A20
:101D8000F0EE610AD0ED101AB0EE610AFEF78EFA9D
:101D9000794880ED100A90ED070AD0ED0B0A20EE8D
:101DA000200A80ED160AD0ED160AB0EE600A1FED8B
:101DB0009D1A5FED9D0AFEF779FA6F4880ED160ACD
:101DC00090ED080AD0ED100A20EE200A80ED170AE7
:101DD00090ED0B0AD0ED0D0A30EE600AD0ED090A45
:101DE00020EE200A80ED180AD0ED180AB0EE600A45
:101DF0009FED641ADFED640AFEF758FA5E4880ED45
:101E0000180A90ED160AD0ED170A30EE200AD0ED30
:101E1000180A30EE200A80ED190AD0ED190AB0EE4A
:101E2000600A1FEDBA1A5FEDBA0AFEF73FFA524890
:101E300080ED190A90ED0B0A80ED0D0A90ED190A5C
:101E4000B1EE400ABDEEC00A10EE100A01B24A48D7
:101E5000A0F87410B0F9740000EE900AF8EEE00AF1
:101E6000B0EE600A494801F099FDBDEEC00A10EEDF
:101E7000100A01B24048A0F87410002008EE100AC1
:101E80003D48B0F97410B0F96E00081A00EE100A5F
:101E9000B8EEC00A384880ED0A0A90ED0E0AD0ED7F
:101EA0000A0A30EE200A80ED0E0AD0ED0F1AB0EECD
:101EB000611AD0ED0F1AF1EE611AF0EE610AD0ED61
:101EC0000E1AB0EE610AFEF7F1F92B4880ED0E0A0A
:101ED00090ED040AD0ED0A0A20EE200A80ED120AE5
:101EE000D0ED120AB0EE600A1FEDEA1A5FEDEA0AC1
:101EF000FEF7DCF9204880ED120A90ED050AD0EDDE
:101F00000E0A20EE200A80ED130A90ED0A0AD0EDA9
:101F10000C0A30EE600AD0ED060A20EE200A80EDB1
:101F2000140AD0ED140AB0EE600A9FED191ADFED25
:101F3000190AFEF7BBF9104880ED140A90ED120A59
:101F4000D0ED130A30EE200AD0ED140A30EE200A4C
:101F500080ED150A90ED150AF8EEC80A30EE200A59
:101F600080ED150AD0ED150AB0EE600A9FED0A1A51
:101F7000DFED0A0A14E00000F403002072000020E4
:101F80005800002000009643000096C3C8020020BD
:101F900000007A4400007AC400409C4500409CC583
:101FA000FEF784F9FE4880ED150A90ED0A0A80EDEF
:101FB0000C0ABDEC028B10BD38B504460D4600205E
:101FC000034622462946009040F2FF1001F005F931
:101FD00038BD10B5F248007A012815D1F04948689B
:101FE0008047EF4A92ED300ABDEEC00A10EE102A8B
:101FF00011B2EB4A92ED150ABDEEC00A10EE102A9E
:1020000010B2FFF7D9FF47E0E5480078C8B9E449C6
:10201000886F8047E249D1F8E8008047E04A92EDB6
:10202000300ABDEEC00A10EE102A11B2DC4A92ED61
:10203000150ABDEEC00A10EE102A10B2FFF7BCFF61
:102040002AE0D7480078012819D1D549886F804700
:10205000D349D1F850018047D14A92ED4C0ABDEEE8
:10206000C00A10EE102A11B2CD4A92ED150ABDEE4B
:10207000C00A10EE102A10B2FFF79EFF0CE0C8480D
:102080000078022804D100210846FFF795FF03E0FD
:1020900000210846FFF790FF10BD70B5002500260F
:1020A0000A24C0480088A0F23A20002804DDBD4878
:1020B0000088A0F23A2004E0BA48008840F23A21B1
:1020C000081AA04205DC40F23A20B64908800126F1
:1020D00010E0B448008840F23A21884205DDB1485A
:1020E0000088001BAF49088004E0AE480088204407
:1020F000AC490880AC480088A0F61100002804DD37
:10210000A9480088A0F6110004E0A748008840F61E
:102110001101081AA04205DC40F61100A24908800E
:10212000012510E0A048008840F61101884205DD35
:102130009D480088001B9C49088004E09A4800885C
:10214000204499490880012E04D1012D02D100209C
:10215000934908729348008801B29148A0F86C1026
:102160009148008801B28E48A0F8D8100146886FC7
:1021700080478B49D1F8E800804770BDAFF2E50099
:10218000874948600120087200200870AFF2BD1036
:10219000C860AFF25341824881670021A0F86E10F9
:1021A000A0F86810A0F86A100167A0F8741041F256
:1021B0009A01A0F86C10B0EE080A80ED040A9FEDB9
:1021C0007B0A80ED050A9FED7A0A80ED060A9FEDF5
:1021D000780A80ED0A0A9FED760A80ED0C0A9FEDE1
:1021E000740A80ED0E0A9FED730A80ED0F0A9FEDD1
:1021F000700A80ED120A9FED6E0A80ED130A9FEDC2
:102200006C0A80ED140A9FED6A0A80ED150AB0EEA3
:10221000040A80ED070A9FED660A80ED080A9FED2B
:10222000640A80ED090A9FED620A80ED0B0A9FEDBA
:10223000600A80ED0D0A9FED5E0A80ED100A9FEDA9
:102240005C0A80ED110A9FED5A0A80ED160A9FED97
:10225000580A80ED170A9FED560A80ED180A9FED87
:10226000540A80ED190AAFF6D501C0F850110021CB
:10227000A0F84C119FED4E0A80ED510AA0F84E11C6
:102280009FED4B0A80ED520AAFF68941C0F8E81085
:102290000021A0F8D410A0F8D6109FED450A80EDDB
:1022A000370AC0F8E0109FED420A80ED390A40F687
:1022B0000201A0F8D8109FED400A80ED3B0A9FED87
:1022C0003F0A80ED3C0A9FED3A0A80ED3D0A9FED02
:1022D000380A80ED410A9FED360A80ED430A9FEDF2
:1022E000340A80ED450A9FED360A80ED460A9FEDDF
:1022F000300A80ED490A9FED2E0A80ED4A0A9FEDD3
:102300002C0A80ED4B0A9FED2A0A80ED4C0A9FEDC6
:102310002D0A80ED3E0A9FED260A80ED3F0A9FEDD3
:10232000240A80ED400A9FED220A80ED420A9FEDCB
:10233000200A80ED440A9FED1E0A80ED470A9FEDBA
:102340001C0A80ED480A9FED1A0A80ED4D0A9FEDA8
:10235000180A80ED4E0A9FED160A80ED4F0A9FED98
:10236000140A80ED500A9FED140A80ED1F0A9FEDBC
:10237000130A80ED200A9FED0E0A80ED210A9FEDE1
:102380000C0A80ED250A9FED0A0A80ED270A9FEDD1
:10239000080A80ED290A9FED0A0A80ED2A0A13E057
:1023A000F40300206E0000206C000020CDCCCC3C5B
:1023B000000000000050C347666666400AD7A33C91
:1023C000007C924700008C421FED070A80ED2D0A29
:1023D0001FED090A80ED2E0A1FED0B0A80ED2F0A72
:1023E0001FED0D0A80ED300AB2EE000A80ED220AE0
:1023F0001FED110A80ED230A1FED130A80ED240A58
:102400001FED150A80ED260A1FED170A80ED280A38
:102410001FED190A80ED2B0A1FED1B0A80ED2C0A17
:102420001FED1D0A80ED310A1FED1F0A80ED320AF3
:102430001FED210A80ED330A1FED230A80ED340AD7
:102440000020714981F8540170496F48C0F80C129E
:102450006F49C0F8B0111FED280A80ED6D0A1FED1D
:10246000290A80ED6E0A1FED2E0A80ED6F0A1FED1E
:10247000300A80ED730A1FED320A80ED750A1FEDF8
:10248000340A80ED770A1FED320A80ED780A1FEDDD
:10249000380A80ED7B0A1FED3A0A80ED7C0A1FEDB9
:1024A0003C0A80ED7D0A1FED3E0A80ED7E0A9FED1D
:1024B000590A80ED700A1FED420A80ED710A1FED86
:1024C000440A80ED720A1FED460A80ED740A1FED82
:1024D000480A80ED760A1FED4A0A80ED790A9FEDE1
:1024E0004E0A80ED7A0A1FED4E0A80ED7F0A1FED3D
:1024F000500A80ED800A1FED520A80ED810A1FED1F
:10250000540A80ED820AB0EE080A80ED560A1FEDEB
:10251000590A80ED570A1FED5A0A80ED580A1FED3F
:102520005C0A80ED5C0A1FED5E0A80ED5E0A1FED1D
:10253000600A80ED600A1FED610A80ED610A1FEDFF
:10254000640A80ED640A1FED660A80ED650A1FEDDE
:10255000680A80ED660A1FED6A0A80ED670A9FED42
:102560002F0A80ED590A1FED6E0A80ED5A0A1FED01
:10257000700A80ED5B0A1FED720A80ED5D0A1FEDA7
:10258000740A80ED5F0A1FED760A80ED620A1FED86
:10259000780A80ED630A1FED7A0A80ED680A1FED64
:1025A0007C0A80ED690A1FED7E0A80ED6A0A1FED44
:1025B000800A80ED6B0A704700EE100AB8EEC00A80
:1025C000114B83ED510AA3F84C1100EE101AB8EE2E
:1025D000C00A83ED370AA3F86E2070470246012334
:1025E000501A002801DD501A00E0881A984201DADA
:1025F000114606E08A4202DDC81801B201E0C81A9D
:1026000001B2084670470000F4030020DD12000804
:10261000B50F00080000C84200401C4600002042E0
:1026200010B55F48B0F906005D49B1F90410401AD1
:1026300000EE100AB8EEC00A594880ED050A90ED88
:10264000070AD0ED050A30EE200A80ED070AD0ED2A
:10265000081AB0EE611AD0ED081AF1EE611AF0EE28
:10266000610AD0ED071AB0EE610AFDF71FFE4C4873
:1026700080ED070A90ED020AD0ED050A20EE200A4F
:1026800080ED090AD0ED090AB0EE600A9FED451A07
:10269000DFED450AFDF70AFE414880ED090A90ED9D
:1026A000030AD0ED070A20EE200A80ED0A0A90ED19
:1026B000050AD0ED060A30EE600AD0ED040A20EEDD
:1026C000200A80ED0B0AD0ED0B0AB0EE600A9FEDF8
:1026D000371ADFED370AFDF7E9FD314880ED0B0AC7
:1026E00090ED090AD0ED0A0A30EE200AD0ED0B0A6F
:1026F00030EE200A80ED0C0AD0ED0C0AB0EE600A34
:102700009FED281ADFED280AFDF7D0FD244880ED63
:102710000C0A90ED050A80ED060A10BDAFF2FF002D
:102720001F49086000208880C880B2EE000A084671
:1027300080ED020A9FED1F0A80ED030A9FED1E0A3D
:1027400080ED040A9FED1C0A80ED050A9FED1A0A30
:1027500080ED060A9FED180A80ED070A9FED170A23
:1027600080ED080A9FED140A80ED090A9FED120A18
:1027700080ED0A0A9FED100A80ED0B0A9FED0E0A0C
:1027800080ED0C0A704738B5044600202346024607
:10279000014600904FF4007000F01FFD38BD0000AE
:1027A0000406002000FEFF4600FEFFC600409C45D8
:1027B00000409CC59A99193F0000000000401C464B
:1027C00010B5AE4890F84500012814D140F2AD2173
:1027D000AA48A0F84C10B0F84C10B0F84E00814256
:1027E00004D10120A54981F844000CE00020A34950
:1027F00081F8440007E00021A048A0F84C10002018
:102800009E4981F844009D49B1F84C004E3100F0DA
:1028100064FB10BD10B50024994800689949086010
:102820009648B0F93C00964908600846006895490A
:102830000968441A914890F8440030B900208F4943
:10284000888000218D48C1874187002C07DA8D4898
:10285000006841F6FF71081A8949096844188748D9
:10286000807900BB8548B0F93E10002C01DD204680
:1028700000E0604281420FDD8048B0F93E10002C3C
:1028800001DD204600E06042081A01B27B48C187A2
:102890000A207A49888009E000217848C187002011
:1028A0007649888002E000217448C1877348808897
:1028B000B421484301B271484187B0F93A10B0F9E8
:1028C0003800081A00EE100AB8EEC00A6B4880ED16
:1028D000060A90ED080AD0ED060A30EE200A80EDD7
:1028E000080AD0ED091AB0EE611AD0ED091AF1EE1E
:1028F000611AF0EE610AD0ED081AB0EE610AFDF738
:10290000D5FC5E4880ED080A90ED030AD0ED060A7A
:1029100020EE200A80ED0A0AD0ED0A0AB0EE600A25
:102920009FED591ADFED590AFDF7C0FC534880EDC1
:102930000A0A90ED040AD0ED080A20EE200A80ED84
:102940000B0A90ED060AD0ED070A30EE600AD0EDD2
:10295000050A20EE200A80ED0C0AD0ED0C0AB0EE3C
:10296000600A9FED4B1ADFED4B0AFDF79FFC4348D1
:1029700080ED0C0A90ED0A0AD0ED0B0A30EE200A29
:10298000D0ED0C0A30EE200A80ED0D0AD0ED0D0AD4
:10299000B0EE600A9FED401ADFED400AFDF786FCBD
:1029A000364880ED0D0A90ED060A80ED070A10BD4D
:1029B00010B53249886C80473049086C804710BD9B
:1029C000AFF213002D490860002088808871AFF2B3
:1029D000BB112A48016400202849087200212748B9
:1029E00081870187C1874187B3EE020A80ED030A20
:1029F0009FED2B0A80ED040A9FED290A80ED050A60
:102A00009FED270A80ED060A9FED250A80ED070A53
:102A10009FED230A80ED080A9FED210A80ED090A47
:102A20009FED1F0A80ED0A0A9FED1D0A80ED0B0A3B
:102A30009FED1B0A80ED0C0A9FED190A80ED0D0A2F
:102A4000AFF2832181640021A0F84E1000200B49D1
:102A500081F844000021094880F84510A0F84C1086
:102A6000704738B5044600200346024621460090D0
:102A70004FF4007000F0B1FB38BD000038060020B4
:102A8000780000207C0000200000FA450000FAC514
:102A90000000FA440000FAC400401C4600401CC676
:102AA0000000000000B58BB00121084601F058FE7F
:102AB0000121480601F09DFE02208DF828004FF408
:102AC000C050099009A94C4801F0ACFB09220B2128
:102AD000494801F032FC09220C21474801F02DFC45
:102AE00014208DF8200001208DF821008DF822009F
:102AF0008DF8230008A801F0A4FA00208DF81A0030
:102B00008DF81B008DF81C008DF81D008DF81E003F
:102B100001208DF81F0008208DF8180003208DF883
:102B2000190000208DF816000320ADF814000020D5
:102B30008DF8170005A9314803F00FF900208DF832
:102B40000E008DF80F0001208DF810000020ADF868
:102B50000C0001208DF811000020ADF80400ADF844
:102B60000600ADF80800ADF80A0001A803F07FF9EF
:102B700001220221214803F079FC0BB000BD2DE9B0
:102B8000F04186B007460C4615461E46DDF83080FB
:102B9000019700208DF80C008DF80D0008208DF8AD
:102BA0000E00200A8DF80F008DF81040290A8DF8CC
:102BB00011108DF81250310A8DF813108DF8146031
:102BC0004FEA18218DF815108DF8168001A90B48D1
:102BD00003F03CFA06B0BDE8F08100B585B00848C6
:102BE00040B10221054803F044FD6A460021034834
:102BF00003F021FB05B000BD00000240006400406E
:102C00003D65000800B597B00121494801F0A8FDD5
:102C10000121480401F0EDFD07220321454801F0A0
:102C20008CFB0820159002208DF8580000208DF8AC
:102C30005A0003208DF8590000208DF85B0015A97B
:102C40003C4801F0EFFA3C4802F01CFD3B48119073
:102C50000020ADF84800ADF84A004FF48060ADF8B0
:102C60004C000420ADF84E000020ADF8500011A932
:102C7000314802F06EFD01212F4802F0F2FD0122E1
:102C800040212D4802F09AFE10208DF8040001200A
:102C90008DF8050000208DF8060001208DF8070052
:102CA00001A801F0CEF9264803F036FD4FF0006090
:102CB00002902148001D03902248049000200590B6
:102CC00012200690002007904FF4806008900020AA
:102CD00009900A904FF480700B904FF440300C90A4
:102CE00000200D900E900F90109002A9144803F050
:102CF000B5FD01221021124803F077FE0121104892
:102D000003F0E6FD17B000BD10B50F490C4803F005
:102D100089FE58B10D490A4803F053FE0A49084894
:102D200003F0AAFE07491439486B804710BD000024
:102D3000010020000000024000440040A086010085
:102D400088600240CC03002000880020000800209A
:102D50001CB50121042001F003FD00208DF80700BF
:102D600002208DF8050001208DF804004FF4D840B2
:102D7000009069460B4801F055FA4FF4006109488C
:102D800001F0CCFA4FF40061064801F0C7FA4FF4A5
:102D90000051044801F0C2FA4FF48041014801F0AB
:102DA000BDFA1CBD0008024010B50121080301F066
:102DB000D7FC10BD30B5034605E013F8010B80EADF
:102DC00002043E48025D0800A1F10101F5D1104660
:102DD00030BD70B505460C4600260DB1022C01D859
:102DE000002070BD611EFF222846FFF7E3FF064664
:102DF000601E285CB04201D10120F2E70020F0E71C
:102E000070B505460C4600260DB1022C00D870BDE9
:102E1000611EFF222846FFF7CDFF0646601E2E5496
:102E200000BFF4E730B5034613B94FF6FF7030BD6D
:102E300009E013F8014B82EA0400C0B2204D35F8D6
:102E4000100080EA22220800A1F10101F1D1104610
:102E5000EDE770B505460C4600260DB1022C01D8F1
:102E6000002070BDA11E174802882846FFF7DAFF30
:102E70000646F1B2A01E285C814206D1601E285C85
:102E8000B0EB162F01D10120EBE70020E9E770B588
:102E900005460C4600260DB1022C00D870BDA11EBF
:102EA000084802882846FFF7BDFF0646A01E2E549C
:102EB000310A601E295400BFF0E7000033C5000846
:102EC00034C600088000002000F57A72834B1A6037
:102ED00001F57A721B1D1A60704770B505460C46E5
:102EE00001262088A919884203DB2088801B2080C6
:102EF00008E02088A91B884203DC20883044208019
:102F000000E02580228811B210B2FFF7DDFF70BD0E
:102F100010B501220B888418A34203DB0B889B1A8F
:102F20000B8008E00B88841AA34203DC0B8813444F
:102F30000B8000E008800B88694CA36310BD00B5CE
:102F40008BB00121102001F00BFC0121084601F09B
:102F500061FC4FF40060099002208DF828000320E6
:102F60008DF8290009A95F4801F05CF901220B21C5
:102F70005C4801F0E2F940F61F50ADF8180000205F
:102F8000ADF81A0040F2E73007900020ADF82000BD
:102F900006A9534801F0D1FD7020ADF804000120CE
:102FA000ADF806000020ADF8080003900220ADF84F
:102FB00010000020ADF81200ADF814004FF480703E
:102FC000ADF8160001A9464801F085FE08214448E5
:102FD00001F0DEFF0121424801F01AFE01214048C4
:102FE00002F025FA01213E4801F030FE00203C4964
:102FF00088630BB000BD00B58BB00121084601F01D
:10300000AFFB0121022001F0F4FBC0200990022057
:103010008DF8280003208DF8290009A9324801F015
:1030200001F902220621304801F087F90222072126
:103030002D4801F082F95320ADF818000020ADF8BA
:103040001A0040F6C31007900020ADF8200006A932
:103050002248343801F071FD7020ADF804000120E1
:10306000ADF806000020ADF8080003900220ADF88E
:1030700010000020ADF81200ADF814004FF480707D
:10308000ADF8160001A91548343801F0EBFD082110
:103090001248343801F073FF01A91048343801F0A8
:1030A0001AFE08210D48343801F072FF01210B4847
:1030B000343801F0ADFD01210848343802F0B7F989
:1030C00001210648343801F0C1FD4FF47A700349FC
:1030D0000860091D08600BB000BD0000340400400A
:1030E00000000140001002400000024000B58BB01B
:1030F0000121022001F034FB0121480601F079FB97
:103100000121880601F075FB09220C217D4801F0A0
:1031100014F909220D217B4801F00FF94FF44050BA
:10312000029002208DF80C0002A9764801F07AF88E
:1031300040208DF8040001208DF8050002208DF854
:10314000060001208DF8070001A800F07AFF6E4804
:1031500002F0EAFD08A802F00BFF00208DF826001F
:103160008DF827008DF828008DF829008DF82A00A9
:1031700001208DF82B0000208DF822008DF823000F
:1031800008208DF8240003208DF82500ADF82000DC
:1031900008A95D4802F0E1FD0E208DF81A0000201C
:1031A0008DF81B0001208DF81C000020ADF81000E8
:1031B000ADF81200ADF81400ADF81600ADF8180027
:1031C00001208DF81D0004A802F051FE0122022109
:1031D0004D4803F04BF90BB000BD2DE9F04186B02E
:1031E00007460C4615461E46DDF830800197002044
:1031F0008DF80C008DF80D0008208DF80E00200AC7
:103200008DF80F008DF81040290A8DF811108DF8F7
:103210001250310A8DF813108DF814604FEA1821FE
:103220008DF815108DF8168001A9374802F00EFFB1
:1032300006B0BDE8F08100B585B00221324803F048
:103240007DF900285BD002212F4803F012FA6A466C
:1032500000212D4802F0EFFF40F20621009888423D
:103260000ED19DF80C009DF80B1040EA012001B230
:103270002648A0F86810B0F86800254908803EE0AC
:1032800040F20521009888420AD19DF80C009DF873
:103290000B1040EA012001B21C48A0F8D4102EE027
:1032A00040F201210098884212D19DF80C009DF84F
:1032B0000B1040EA012001B2164881879DF80E10DC
:1032C0009DF80D0041EA002001B21248018716E086
:1032D00040F203210098884211D19DF80E109DF80C
:1032E0000D0041EA002000B20B4988800846B0F981
:1032F00004200A21002000F053F90749888005B016
:1033000000BD00000004024000680040F4030020FB
:1033100082000020380600200406002070B5044614
:103320000D4605F10C030122022104F10C0003F00B
:1033300027FC05F114030122022104F1140003F01B
:103340001FFC05F11C030122022104F11C0003F003
:1033500017FC05F174030222114604F1240003F066
:103360000FFC05F184030222114604F12C0003F046
:1033700007FC05F194030222114604F1440003F016
:10338000FFFB05F1A4030222114604F14C0003F0F7
:10339000F7FB05F144030222114604F1540003F047
:1033A000EFFB05F124030222114604F15C0003F057
:1033B000E7FB05F134030222114604F1640003F037
:1033C000DFFB05F154030222114604F1340003F03F
:1033D000D7FB04F1340104F1240003F05FFE05F192
:1033E00064030222114604F13C0003F0C9FB04F11E
:1033F0003C0104F12C0003F051FE70BD10B52DED21
:10340000028B8AB00446B0EE408AF0EE608A00205B
:1034100006900790089009900490059006AB022250
:10342000114602A803F0ACFB04AB0122022168465E
:1034300003F0A6FB206A80ED008A206AC0ED018AB5
:1034400004F1140204F10C0104F1240003F024FD42
:1034500004F15C0204F1540104F1240003F01CFDAA
:1034600002AA04F1340104F15C0003F015FD04F13B
:103470005C0204F1440102A803F022FB04F164029F
:1034800004F15C0104F12C0003F006FD02AA04F132
:103490003C0104F1640003F0FFFC04F1640204F158
:1034A0004C0102A803F00CFB04F1540104F1640088
:1034B00003F06AFB02AA04F13C0104F15C0003F092
:1034C000EBFC04F1640204F1540102A803F0E4FCF3
:1034D0006A4604F1140104F12C0003F0DDFC04F150
:1034E0000C02694604F11C0003F078FD6A4604F101
:1034F0000C0104F1640003F0CFFC04F10C026946F6
:1035000004F1140003F0DCFA04F1540204F12C017C
:1035100004F1640003F0C0FC02AA04F1540104F1B8
:10352000440003F05BFD04F1540204F15C0102A8C5
:1035300003F0B2FC206990ED000AF74880ED000A24
:10354000206990ED010AF54880ED000A206990EDB0
:10355000000A84ED010A206990ED010A84ED020A57
:10356000201D0AB0BDEC028B10BDF0EE401A31EE0A
:10357000610AB5EEC00AF1EE10FA02DD31EE610A21
:1035800003E031EE610AB1EE400AB4EEE00AF1EE7A
:1035900010FA02DDB0EE410A7047B0EE610AFBE7B7
:1035A0000346D01A002801DDD01A00E0981A88429C
:1035B00001DD104670471846FCE730B5B0EE401A02
:1035C000024600200023DFEDD62AF0EE620A541EE8
:1035D00001EB840484ED001A00BF09E0441C01EBF8
:1035E0008404D4ED002A01EB8004C4ED002A401CC1
:1035F000541E8442F2D8002027E0002320E001EB93
:103600008304D4ED002A5C1C01EB840494ED003AA1
:10361000F4EEC32AF1EE10FA11DD01EB8304D4EDD0
:10362000001A5C1C01EB8404D4ED002A01EB830436
:10363000C4ED002A5C1C01EB8404C4ED001A5B1C81
:10364000541E241A9C42DAD8401C541E8442D4D8FA
:10365000D1ED012A91ED003A32EEC32A012023E098
:10366000441C01EB8404D4ED002A01EB800494EDAA
:10367000003A72EEC32AF4EEC22AF1EE10FA12DD1D
:10368000441C01EB8404D4ED002A01EB800494ED8A
:10369000003A72EEC32AB0EE622A02EE900AF8EE09
:1036A000622AF0EE620A401C541E8442D8D89FED74
:1036B0009C0A541C04EBD4756D1002EE905AF8EE7F
:1036C000E22AB7EE003A30EE833AF4EEC32AF1EE86
:1036D00010FA1CD2002008E001EB8004D4ED002A8F
:1036E00072EE802AB0EE620A401C02EE900AF8EEFA
:1036F000622AF4EEE02AF1EE10FAEDD9F7EE002A94
:1037000070EEA22A80EE223AB0EE430A21E0F7EEF4
:10371000002A70EEA22AFCEEE22A12EE900A08E0DD
:1037200001EB8004D4ED002A72EE802AB0EE620A2A
:10373000401C9042F4D302EE902AF8EE622A72EE18
:10374000E02AB7EE003A72EEC32A80EE223AB0EEDB
:10375000430A30BD2DE9F043064600200023002433
:10376000A1F1010C22F81C6000BF06E000F1010C81
:1037700032F81CC022F810C0401CA1F1010C844595
:10378000F4D800201DE0002314E032F9138003F187
:10379000010C32F91CC0E0450BDD32F9135003F186
:1037A000010C32F81CC022F813C003F1010C22F8FE
:1037B0001C505B1CA1F1010CACEB000C9C45E4D847
:1037C000401CA1F1010C8445DDD8B2F902C0B2F968
:1037D0000080ACEB0807012013E000F1010C32F986
:1037E0001CC032F91080ACEB080CBC4508DD00F1C0
:1037F000010C32F91CC032F91080ACEB080704460A
:10380000401CA1F1010C8445E7D89FED450A01F168
:10381000010C0CEBDC7904F10108B8EB690F19D944
:1038200000200AE032F910C000EE90CAF8EEE00A7B
:1038300070EE800AB0EE600A401CA042F2D904F19A
:10384000010C00EE90CAF8EE600A80EE201AB0EE8D
:10385000410A1AE0601C0AE032F910C000EE90CA7A
:10386000F8EEE00A70EE800AB0EE600A401C884272
:10387000F2D3A1EB040CACF1010C00EE90CAF8EE0F
:10388000600A80EE201AB0EE410ABDE8F083F0B580
:1038900004460020002500269FED211AF0EE410A83
:1038A00001FB01F701EE107AF8EEC11A01EE103AB1
:1038B000B8EEC11AB1EE002A21EE021A81EE812A79
:1038C000F0EE420A00BF06E0471C32F8177022F8FB
:1038D0001070471CF8B24F1E8742F5DC22F81740E3
:1038E000002005E032F810702F443DB2471CF8B2BA
:1038F00001EE101AB8EE411AB0EE002AC1EE021A1B
:1039000001EE100AB8EE411AF4EEC11AF1EE10FA07
:10391000E8DC4F1EF8B20BE0840000208800002095
:103920000000000032F8107037443EB2471EF8B273
:1039300001EE101AB8EE411AB0EE002AC1EE021ADA
:1039400001EE100AB8EE411AF4EEC11AF1EE10FAC7
:10395000E8D9771B01EE107AB8EEC11A81EE200A81
:10396000F0BD1FED111A80ED001A1FED131A80ED46
:10397000051A80ED090AC0ED0A0AB7EE001A80EDBB
:10398000071A1FED191A80ED081AB7EE001A80ED1C
:103990000B1A90ED001A80ED011A7047F0EE400A04
:1039A00090ED070A90ED001A20EE010A80ED010A61
:1039B00090ED090A90ED071AD0ED051A01EE210AE3
:1039C00080ED030A90ED030A90ED0A1A30EE010A29
:1039D00090ED031AC1EE001AC0ED061A90ED010A2F
:1039E00090ED061AD0ED011A70EEE11A01EE210AEF
:1039F00080ED020A90ED060AB7EE001A31EE400A99
:103A000090ED031A20EE010A80ED040A90ED040AFD
:103A100080ED050A90ED020A80ED000A90ED020AA1
:103A20007047F0EE401A31EE602AB5EEC02AF1EE92
:103A300010FA02DD31EE602A03E031EE602AB1EEC9
:103A4000422AB4EEE12AF1EE10FA0ADDB4EEE01AF1
:103A5000F1EE10FA02D231EE210A04E031EE610AF1
:103A600001E0B0EE600A704700B597B001216A48E6
:103A700000F076FE0121C80400F0BBFE0822002100
:103A8000664800F05AFC08220121644800F055FC09
:103A90000120119002208DF8480000208DF84A0086
:103AA00003208DF8490001208DF84B0011A95B48D7
:103AB00000F0B8FB0220119011A9584800F0B2FBA9
:103AC0004FF4E13013900020ADF85000ADF85200F3
:103AD000ADF854000C20ADF856000020ADF85800A9
:103AE00013A94F4801F035FE01214D4801F0B9FE00
:103AF000012240F224414A4801F069FF012240219D
:103B0000474801F05BFF01228021454801F056FF44
:103B1000444802F001FE4FF0006001900020049044
:103B20003F48001D0290404803900020049042202E
:103B30000590002006904FF48060079000200890C8
:103B400009904FF480700A904FF440300B9004209D
:103B50000C9003200D9000200E900F9001A9314889
:103B600002F07CFE01212F4802F0B2FE34208DF8D5
:103B7000400000208DF8410001208DF842008DF8B2
:103B8000430010A800F05DFA17B000BD10B540F278
:103B90002441234801F056FF70B321480088C4B285
:103BA0001F48001D0088C4B2FCF7FBFB1F490860DA
:103BB000084600681E490968401A1E4908601B48EB
:103BC00000681B4908600021164802F081FE154874
:103BD00002F0A1FEC0F14200C4B2224612491648CA
:103BE00006F060FF00F09AF942210F4806F0A7FFA7
:103BF00001210C4802F06CFE10BD10B5044600BF58
:103C00004021074801F008FF0028F9D02146044868
:103C100001F052FE10BD0000010020000000024033
:103C2000004C0040406002408806002090000020C8
:103C3000940000208C000020CA060020E148008883
:103C4000401CE049088008460088C8283CDB4FF447
:103C5000FA7008800020DC4908709FEDDC0ADC481F
:103C600080ED770A9FEDD90A80ED790A9FEDD70A9A
:103C700080ED600A9FEDD50A80ED620A0020D549EB
:103C8000087000BF08E09FEDD10AD34901EB800125
:103C900081ED000A411C88B2CF49091F4988814241
:103CA000F1DC0020CC49091F08809FEDC80ACB48F1
:103CB00080ED000A9FEDC50AC94880ED000A9FED1E
:103CC000C30AC84880ED000A704730B50B469FED27
:103CD000BF1AF0EE410AC049091F4988814202DA41
:103CE000BD49091F4888BC49091F098881420FDA6C
:103CF000B949091F0C88091D01EB840181ED000AF7
:103D0000B549091F0988491CB34C241F218017E0BD
:103D100000210CE0B04C4D1C04EB850494ED001A1E
:103D2000AD4C04EB810484ED001A4C1CA1B2441E7E
:103D30008C42EFDC411EA84C04EB810181ED000AAE
:103D400000210AE0A44C04EB810494ED001A31EE4A
:103D5000201AF0EE410A4C1CA1B28142F2DB01EEC6
:103D6000100AF8EE411AB7EE002A81EE821AC0EE70
:103D7000811AC3ED001A93ED001A30EE411A82ED5C
:103D8000001A30BD10B52DED048B9148B0F9D40068
:103D900000EE100AB8EEC00A934880ED000A93487E
:103DA000D0F80700924908608F4890ED000A9148CA
:103DB000D0ED000A30EE600A8F4880ED000A90EDE9
:103DC000000AB5EEC00AF1EE10FA02DD90ED000A2D
:103DD00004E0894890ED000AB1EE400ADFED870A61
:103DE000B4EEE00AF1EE10FA19DB834890ED000A18
:103DF000B5EEC00AF1EE10FA08DD90ED000ADFED35
:103E0000800A30EE600A80ED000A08E07A4890ED02
:103E1000000ADFED7B0A30EE200A80ED000A7648CA
:103E200090ED000ADFED770A80EE201A80ED001A8F
:103E30006F4890ED000A7448D0ED000A30EE600A39
:103E4000724880ED000A684890ED000A694880EDEC
:103E5000000A674890ED000A6B4880ED000A66484A
:103E600090ED000A6948D0ED000A30EE208AB0EEED
:103E7000480A6748FFF792FD664880ED000A90ED1A
:103E8000001ADFED650A9FED510AFFF76EFB6148EE
:103E900080ED000A006808F0D1FA41EC190B9FEDA3
:103EA0005F0B53EC102B08F0D1F805D2B9EE000AE5
:103EB0005C4880ED000A17E05648006808F0BEFA3A
:103EC00041EC190B9FED580B53EC102B07F084FFBE
:103ED00005D2B1EE000A534880ED000A04E09FEDE0
:103EE0003B0A504880ED000A514890ED001A4D48B9
:103EF000D0ED000A9FED4F0AFFF793FD4C4880ED8F
:103F0000000A3548001F0088322804DA9FED2F0A86
:103F1000474880ED000ABDEC048B10BD10B5334856
:103F2000007CB8BB9FED290A294880ED770A9FEDF8
:103F3000270A80ED790A9FED250A80ED600A9FED42
:103F4000230A80ED620A00202249087000BF08E0C1
:103F50009FED1E0A204901EB800181ED000A411C02
:103F600088B21D49091F49888142F1DC00201A49A5
:103F7000091F08809FED150A184880ED000A9FED83
:103F8000130A174880ED000A9FED100A154880EDCE
:103F9000000A0FE0FFE7FFF7F5FE01200D4908706A
:103FA0001248D0F8070000EE100A0D4A0B493220E3
:103FB000FFF78BFE002003490880012002490870AA
:103FC00010BD70473C0200203E02002000000000AF
:103FD000F4030020300200209C0000203402002066
:103FE000380200206800002054020020CA06002089
:103FF0005C020020580200204C0200200000804596
:1040000000F8FF450000B641600200205002002089
:1040100028030020480200200AD7233C9A99999946
:104020009999B93F640200209A9999999999B9BFD1
:10403000400200209A99193E32490143324A1160E8
:10404000704770B5002100230F22C4781CB32E4C9A
:10405000246804F4E064C4F5E064C4F30721C1F10A
:104060000404E3B20A4144789C40E1B284781440ED
:1040700021430C07210E254C05786155047804F086
:104080001F050124AC4005786D11AD0005F1E02558
:10409000C5F8004109E0047804F01F050124AC4094
:1040A0001B4D0678761145F8264070BD194A0A4026
:1040B0000243154B1B1F1A60704739B1124A121D7B
:1040C00012680243104B1B1D1A6006E00E4A121DB7
:1040D000126882430C4B1B1D1A607047042808D1DC
:1040E0004FF0E021096941F004014FF0E022116135
:1040F00007E04FF0E021096921F004014FF0E022D0
:10410000116170470000FA050CED00E000E400E0EA
:1041100080E100E080FFFF1F10B50446984884420C
:1041200008D10121084600F086FB0021012000F0A3
:1041300082FB76E09348844208D10121022000F0FE
:104140007AFB0021022000F076FB6AE08E48844270
:1041500008D10121042000F06EFB0021042000F0B2
:104160006AFB5EE08948844208D10121082000F002
:1041700062FB0021082000F05EFB52E0844884428C
:1041800008D10121102000F056FB0021102000F082
:1041900052FB46E07F48844208D10121202000F0F4
:1041A0004AFB0021202000F046FB3AE07A48844296
:1041B00008D10121402000F03EFB0021402000F00A
:1041C0003AFB2EE07548844208D10121802000F09E
:1041D00032FB0021802000F02EFB22E07048844258
:1041E00008D10121801500F026FB0021A01500F068
:1041F00022FB16E06B48844208D10121401500F0F3
:104200001AFB0021601500F016FB0AE066488442A4
:1042100007D10121001500F00EFB0021201500F050
:104220000AFB10BDF0B50A4600210023002400BFA0
:104230003DE0012505FA01F3156805EA03049C42F7
:1042400034D105684F000326BE40B543056015799B
:104250004E00B5400668354305601579012D02D042
:104260001579022D16D185684F000326BE40B5434F
:10427000856055794E00B540866835438560456850
:1042800001268E40B5434560456896798E40B6B2AA
:1042900035434560C5684F000326BE40B543C56041
:1042A000D5794E00B540C6683543C560491C102914
:1042B000BFD3F0BD4FF6FF71016000210171417164
:1042C0008171C171704708B54FF480320092009A35
:1042D0000A430092009AC261C161009AC261C26938
:1042E0000092C269009208BD0246002013690B408B
:1042F0000BB1012000E0002070470146086980B240
:1043000070470246002053690B400BB1012000E0CA
:10431000002070470146486980B2704701837047AA
:10432000418370470AB1018300E0418370474161D6
:10433000704742694A4042617047F0B5002300244B
:104340004D07ED0E02FA05F3CE1000F1200555F8E9
:1043500026504E07F70E0F26BE40B543CF1000F192
:10436000200646F82750CE1000F1200555F82650BB
:1043700045EA0304CE1000F1200545F82640F0BDC3
:10438000000002400004024000080240000C02400D
:10439000001002400014024000180240001C0240BD
:1043A000002002400024024000280240F948006832
:1043B00040F00100F74908600020F6490831086024
:1043C000F4480068F4490840F2490860F348091DC0
:1043D0000860F348EF4984310860F0481038091D3F
:1043E0000860EC48006820F48020EA49086000205A
:1043F000E8490C310860E7498C31086070470021BA
:10440000E44A921C117011460870704710B50146BD
:104410000022002300204A11012A02D1DD4C23682A
:1044200008E0022A03D1DB4C7034236802E0D94C47
:104430007434236801F01F02012494401C400CB125
:10444000012000E0002010BD38B5002000900024BD
:10445000002500BF3120FFF7D9FF05460098401C1A
:1044600000900098B0F5A04F01D0002DF2D031207F
:10447000FFF7CCFF08B1012400E00024204638BD3E
:1044800001460020C34A106820F0F80040EAC1004D
:1044900010607047C349086070470021BD4A703200
:1044A00011701170012802D004280AD104E0012102
:1044B000B84A7032117005E00521B64A70321170A9
:1044C00000E000BF00BF7047B7490860704770B593
:1044D000049C41EA82150126C6EB530645EA0645CF
:1044E000054345EA0465AB4E361D356070BDAD49E8
:1044F00008667047820142EA0172A64B84331A6053
:104500007047A8498866704710B5830143EA016384
:1045100043EA02739F4C8834236010BDA1490867A9
:104520007047A049C864704702460020994B083381
:10453000186820F0EC6042EA01031843954B0833F9
:104540001860704702460020924B0833186820F02C
:10455000784042EA010318438E4B083318607047D5
:10456000014600208B4A0832106820F003000843FF
:104570001060704787480830006800F00C007047F2
:1045800001460020834A0832106820F0F0000843FA
:1045900010607047014600207E4A0832106820F4FF
:1045A000E05008431060704701460020794A083205
:1045B000106820F4604040EAC10010607047F0B518
:1045C000002100220024022500260223714F083713
:1045D0003F6807F00C0121B1042905D0082937D123
:1045E00005E0724F076036E0714F076033E0694FB6
:1045F0003F1D3F68C7F38056664F3F1D3F6807F079
:104600003F036EB16A4FB7FBF3F7DFF888C10CF1D7
:10461000040CDCF800C0CCF3881C07FB0CF40CE0A5
:10462000624FB7FBF3F7DFF86CC10CF1040CDCF858
:1046300000C0CCF3881C07FB0CF4564F3F1D3F68AD
:10464000C7F301477F1C7D00B4FBF5F7076002E06C
:10465000564F076000BF00BF4E4F08373F6807F056
:10466000F0010909534F7A5C0768D7404760494F0A
:1046700008373F6807F4E051890A4E4F7A5C476873
:10468000D7408760434F08373F6807F46041490BC4
:10469000484F7A5C4768D740C760F0BD002100F4FE
:1046A0004072B2F5407F0AD13A4A0832116821F4CB
:1046B000F811414A02401143364A08321160354A26
:1046C00070321268C0F30B031A43324B70331A6016
:1046D00070473549443908607047334940390860AC
:1046E000704736490860704701460020294A8C32DD
:1046F000106820F01F004A1E1043264A8C321060BA
:10470000704701460020234A8C32106820F4F8508C
:104710004A1E40EA02201F4A8C3210607047014650
:1047200000201C4A8C32106820F4401008431060AE
:10473000704701460020174A8C32106820F4400070
:1047400008431060704701460020124A8C321068FE
:1047500020F44030084310607047194908607047E2
:1047600039B10C4A3032126802430A4B30331A60B6
:1047700006E0084A303212688243064B30331A6032
:104780007047F9B1034A343212680243014B3433A3
:104790001A601CE000380240FFFFF6EA10300024E7
:1047A0000030002000004742800E47420024F40001
:1047B00040787D0168020020FFFCFF0F5C0147424A
:1047C000E0114742854A12688243844B1A60704761
:1047D00039B1824A121D12680243804B1B1D1A60B8
:1047E00006E07E4A121D126882437C4B1B1D1A6034
:1047F000704739B1794A0C3212680243774B0C3357
:104800001A6006E0754A0C3212688243734B0C330F
:104810001A60704739B1714A1032126802436F4B07
:1048200010331A6006E06D4A1032126882436B4BF7
:1048300010331A60704739B1684A243A126802434B
:10484000664B243B1A6006E0644A243A12688243AD
:10485000624B243B1A60704739B1604A203A1268B3
:1048600002435E4B203B1A6006E05C4A203A126825
:1048700082435A4B203B1A60704739B1574A1C3A61
:1048800012680243554B1C3B1A6006E0534A1C3A1F
:1048900012688243514B1C3B1A60704739B14F4A32
:1048A000143A126802434D4B143B1A6006E04B4A1F
:1048B000143A12688243494B143B1A60704739B16D
:1048C000464A103A12680243444B103B1A6006E015
:1048D000424A103A12688243404B103B1A607047BC
:1048E00039B13E4A1C32126802433C4B1C331A60F9
:1048F00006E03A4A1C3212688243384B1C331A6075
:10490000704739B1354A203212680243334B2033A5
:104910001A6006E0314A2032126882432F4B20335E
:104920001A60704739B12D4A2432126802432B4B6A
:1049300024331A6006E0294A243212688243274B46
:1049400024331A60704739B1244A2C32126802436A
:10495000224B2C331A6006E0204A2C321268824324
:104960001E4B2C331A60704739B11C4A3032126822
:1049700002431A4B30331A6006E0184A303212688C
:104980008243164B30331A60704739B1134A273AC5
:1049900012780243114B273B1A7006E00F4A273A60
:1049A000127882430D4B273B1A7070470B484030FA
:1049B000006840F080700949403108607047014646
:1049C0000020064A283A12680A400AB1012000E095
:1049D000002070470149263908707047343802407A
:1049E00010B50446FE48844208D101210846FFF76D
:1049F00066FF00210120FFF762FF9DE0B4F1804FC8
:104A000008D101210846FFF749FF00210120FFF7E7
:104A100045FF91E0F348844208D101210220FFF7CD
:104A20003DFF00210220FFF739FF85E0EE48844278
:104A300008D101210420FFF731FF00210420FFF7F6
:104A40002DFF79E0E948844208D101210820FFF7D1
:104A500025FF00210820FFF721FF6DE0E448844294
:104A600008D101211020FFF719FF00211020FFF7C6
:104A700015FF61E0DF48844208D101212020FFF7C3
:104A80000DFF00212020FFF709FF55E0DA4884429E
:104A900008D101210220FFF712FF00210220FFF7B9
:104AA0000EFF49E0D548844209D101210804FFF7EF
:104AB00006FF00214FF48030FFF701FF3CE0D048B3
:104AC000844209D101214804FFF7F9FE00214FF487
:104AD0000030FFF7F4FE2FE0CA48844209D10121DB
:104AE0008804FFF7ECFE00214FF48020FFF7E7FE7B
:104AF00022E0C548844208D101214020FFF7CEFEC4
:104B000000214020FFF7CAFE16E0C048844208D1C9
:104B100001218020FFF7C2FE00218020FFF7BEFEAA
:104B20000AE0BB48844207D101218015FFF7B6FE99
:104B30000021A015FFF7B2FE10BD00220288A84B8D
:104B400098420ED0AC4B98420BD0B0F1804F08D0B9
:104B5000A44B984205D0A44B984202D0A34B984254
:104B600004D14FF68F731A404B881A43A04B9842DA
:104B700007D0A04B984204D04FF6FF431A400B8950
:104B80001A4302804B68C3620B880385944B98429A
:104B900002D0994B984201D18B7A038601238382FC
:104BA00070474FF0FF314160002101800181418059
:104BB000817270470185828270470A460021018810
:104BC0004FF68F731940114301807047416270475F
:104BD000C16270470146486A70470146088D7047B8
:104BE00021B1028842F00202028004E002884FF6FE
:104BF000FD731A400280704721B1028842F004021E
:104C0000028004E002884FF6FB731A40028070476E
:104C100021B1028842F08002028004E002884FF64F
:104C20007F731A400280704702884FF6F7731A406C
:104C3000028002880A430280704702884FF6FF43D1
:104C40001A40028002880A430280704721B102881C
:104C500042F00102028004E002884FF6FE731A401F
:104C60000280704770B5002400220023058C4FF6A7
:104C7000FE7635400584028C8388048B4FF68F7551
:104C80002C40B51E2C400D882C43751E2A408D8962
:104C90002A434D882A43524DA84202D0564DA8427D
:104CA00013D14FF6F7752A40CD892A434FF6FB758D
:104CB0002A408D882A434FF6FF652B404FF6FF555B
:104CC0002B400D8A2B434D8A2B43838004838D68B0
:104CD0004563028470BD70B5002400220023058C5A
:104CE0004FF6EF7635400584028C8388048B48F6B6
:104CF000FF752C404FF6FF452C400D884FF6FF7690
:104D000006EA05252C434FF6DF752A408D8906EA11
:104D100005152A434D8806EA05152A43304DA84259
:104D200002D0354DA8421DD14FF67F752A40CD895E
:104D30004FF6FF7606EA05152A434FF6BF752A405F
:104D40008D8806EA05152A434FF6FF352B404FF2B2
:104D5000FF752B400D8A06EA85052B434D8A06EA2E
:104D600085052B43838004838D688563028470BD31
:104D700070B5002400220023058C4FF6FF663540F5
:104D80000584028C8388848B4FF68F752C404FF6F8
:104D9000FC752C400D882C434FF6FF552A408D8919
:104DA0004FF6FF7606EA05252A434D8806EA0525D3
:104DB0002A430B4DA84202D00F4DA84238D14FF2E2
:104DC000FF752A40CD894FF6FF7606EA05252A436E
:104DD0004FF6FF352A408D8806EA05252A4319E05B
:104DE000000001400004004000080040000C0040AA
:104DF0000010004000140040000401400040014049
:104E0000004401400048014000180040001C0040E0
:104E1000002000404EF6FF752B404DF6FF752B40ED
:104E20000D8A06EA05152B434D8A06EA05152B4324
:104E3000838084838D68C563028470BD70B5002251
:104E400000230024058C4EF6FF7635400584038C44
:104E50008488828B48F6FF752A404FF6FF452A402A
:104E60000D884FF6FF7606EA05252A434DF6FF75B5
:104E70002B408D8906EA05352B434D8806EA05351A
:104E80002B43FE4DA84202D0FD4DA84208D14BF65F
:104E9000FF752C400D8A4FF6FF7606EA85152C43E8
:104EA000848082838D680564038470BD0021018045
:104EB0004180818081608181C1810182418270470E
:104EC00070B50346002000241846183001258D4097
:104ED000ACB21D8CA5431D8409B108290AD100EB91
:104EE000610005684FF68F7635400560056815430B
:104EF00005600FE00D1FC5F34E052844056848F610
:104F0000FF763540056005684FF6FF7606EA022613
:104F10003543056070BD4163704781637047C1636D
:104F20007047016470470A460021018B4FF68F736A
:104F300019401143018370470A460021018B48F64E
:104F4000FF7319404FF6FF7303EA022319430183ED
:104F500070470A460021818B4FF68F731940114329
:104F6000818370470A460021818B48F6FF73194000
:104F70004FF6FF7303EA02231943818370470A4601
:104F80000021018B4FF6F7731940114301837047DD
:104F90000A460021018B4FF2FF7319404FF6FF7351
:104FA00003EA02231943018370470A460021818BDB
:104FB0004FF6F77319401143818370470A46002169
:104FC000818B4FF2FF7319404FF6FF7303EA022300
:104FD0001943818370470A460021018B4FF6FB730A
:104FE00019401143018370470A460021018B4FF697
:104FF000FF3319404FF6FF7303EA0223194301837D
:1050000070470A460021818B4FF6FB73194011430C
:10501000818370470A460021818B4FF6FF33194088
:105020004FF6FF7303EA02231943818370470A4650
:105030000021018B4FF67F731940114301837047A4
:105040000A460021018BC1F30E014FF6FF7303EAFC
:1050500002231943018370470A460021818B4FF6D2
:105060007F7319401143818370470A460021818B69
:10507000C1F30E014FF6FF7303EA02231943818344
:1050800070470A460021018C4FF6FD731940114309
:10509000018470470A460021018C4FF6F7731940CE
:1050A0001143018470470A460021018C4FF6DF73DB
:1050B00019404FF6FF7303EA021319430184704746
:1050C0000A460021018C4FF67F7319404FF6FF739B
:1050D00003EA02131943018470470A460021018C38
:1050E0004FF6FF5319404FF6FF7303EA02231943AB
:1050F000018470470A460021018C4FF2FF7319406A
:105100004FF6FF7303EA02231943018470470A46EE
:105110000021018C4DF6FF7319404FF6FF7303EA2F
:10512000023319430184704730B5002301248C40B9
:10513000A3B2048C9C430484048C02FA01F5ADB242
:105140002C43048430BD30B5002304248C40A3B22A
:10515000048C9C430484048C02FA01F5ADB22C4308
:10516000048430BD828B4FF2FF331A408283828BDE
:105170004FF6FF7303EA01231A4382837047F0B5A9
:105180000C461546002100220026078C4EF6FF7CB7
:1051900007EA0C070784818B028C4FF6FF7707EA3A
:1051A000043640F6FF4739404FF6FF7707EA0527F8
:1051B00039434FF6FF7707EA0337394345F6FF7760
:1051C0003A4046F480573A4381830284F0BD828B93
:1051D0004FF6F3731A408283828B0A4382837047AF
:1051E000F0B50C461546002100220026078C4FF62C
:1051F000FF6C07EA0C070784818B028C4FF6FF7760
:1052000007EA04264FF60C7739404FF6FF7707EA96
:1052100003172F4339434FF2FF573A4046F4807744
:105220003A4381830284F0BD028B4FF2FF331A4070
:105230000283028B4FF6FF7303EA01231A430283B2
:105240007047F0B50C461546002100220026078C59
:105250004FF6EF7C07EA0C070784018B028C4FF6B0
:10526000FF7707EA041640F6FF4739404FF6FF770D
:1052700007EA033739434FF6FF7703E000000140A8
:105280000004014007EA052739434FF65F773A40AB
:1052900046F010073A4301830284F0BD028B4FF6BB
:1052A000F3731A400283028B0A4302837047F0B5FE
:1052B0000C46154600210022068C4FF6FE773E4034
:1052C0000684018B028C4FF60C7631407E1C06EA78
:1052D00003162E4331434FF6F576324044F0010673
:1052E000324301830284F0BD70B505460C46208828
:1052F00050B92389A28861882846FFF7D8FFE18842
:105300002846FFF7CBFF25E0208804280AD123890F
:10531000A28861882846FFF794FFE1882846FFF7B6
:1053200083FF17E0208808280AD12389A288618892
:105330002846FFF755FFE1882846FFF748FF09E0B8
:105340002389A28861882846FFF719FFE18828464B
:10535000FFF708FF70BD002101804180012181809D
:105360000021C180018170472DE9F04105460C46BE
:1053700000260127608808B9022600E00026A088E0
:10538000012801D1022700E001272088A0B9238944
:10539000A28861882846FFF78AFFE1882846FFF740
:1053A0007DFF23893A4631462846FFF74AFFE188C8
:1053B0002846FFF739FF13E02389A2886188284631
:1053C000FFF73FFFE1882846FFF72EFF23893A4683
:1053D00031462846FFF76BFFE1882846FFF75EFF5E
:1053E000BDE8F0810146486B70470146886B704705
:1053F0000146C86B70470146086C70470A884B88A5
:105400001A438B881A43CB881A430B891A434B895A
:105410001A438B891A43A0F8442070470021018069
:1054200041808180C180018141818181704731B19A
:10543000B0F8442042F40042A0F8442005E0B0F85F
:105440004420C2F30E02A0F84420704721B18288A4
:1054500042F00402828004E082884FF6FB731A4017
:105460008280704721B1828842F00102828004E08C
:1054700082884FF6FE731A40828070471AB1838982
:105480000B43838102E083898B4383817047818250
:10549000704702460020138A0B400BB1012000E048
:1054A00000207047CA430282704730B50246002090
:1054B00000230024158A05EA0103958905EA010401
:1054C00013B10CB1012000E0002030BDCA430282BC
:1054D000704741EA0203A0F8483070471AB1838947
:1054E0000B43838102E083898B438381704721B121
:1054F000828842F00802828004E082884FF6F773C7
:105500001A408280704701894FF6F872114001817C
:1055100070470A46002101894FF68F7319401143E5
:105520000181704730B504460D4629462046FFF7F5
:10553000F0FF208940F00700208130BD2DE9F041C7
:1055400004460D4616461F46602D06D13B460122F5
:1055500031462046FFF775FE05E03B460122314605
:105560002046FFF7A4FE29462046FFF7D2FF2089F8
:1055700040F007002081BDE8F08130B50C460021E5
:105580000189C9B24FF6FF7505EA03251543254386
:105590002943018130BD2DE9F04105460E461746ED
:1055A0009846002443463A4631462846FFF7E5FF31
:1055B0002C894FF6F870044044F007044FF68F70C2
:1055C000044044F070042C81BDE8F081F0B504463D
:1055D0000D4616461F463B46324629462046FFF7F3
:1055E000CCFF208940F480402081F0BD82884FF6B6
:1055F0008F731A40828082880A43828070470289B2
:105600004FF6F8731A40028102890A4302817047FB
:1056100002894FF67F731A40028102890A43028190
:105620007047F0B50C4615461E46002100220023A7
:105630000189028B038C4FF6F877394021434FF6EE
:10564000FC473A4040F201173A434FF6DD773B40C2
:105650004FF6FF7707EA06172F433B43018102838A
:105660000384F0BD21B1828842F08002828004E090
:1056700082884FF67F731A4082807047A0F85010DE
:105680007047000010B50446FA48844208D1012151
:105690001020FFF714F900211020FFF710F957E050
:1056A000F548844209D101214804FFF7F7F80021A9
:1056B0004FF40030FFF7F2F84AE0F048844209D195
:1056C00001218804FFF7EAF800214FF48020FFF75A
:1056D000E5F83DE0EA48844209D10121C804FFF71A
:1056E000DDF800214FF40020FFF7D8F830E0E5485E
:1056F000844209D101210805FFF7D0F800214FF4B9
:105700008010FFF7CBF823E0DF48844208D1012165
:105710002020FFF7D4F800212020FFF7D0F817E071
:10572000DA48844209D101218807FFF7B7F8002140
:105730004FF08040FFF7B2F80AE0D548844207D125
:1057400001214005FFF7AAF800216005FFF7A6F840
:1057500010BD2DE9FF4705460E460024A14600BFB7
:10576000A046B08900B100BF2C8A24F44054F088D0
:1057700004432C82AC8941F20C608443B0883189A7
:105780000843718908430443AC81AC8A24F4407413
:10579000B0890443AC826846FEF711FFB5488542E4
:1057A00002D0B948854202D1DDF80C9001E0DDF865
:1057B0000890A88900F4004040B109EBC90000EB53
:1057C000091031684900B0FBF1F707E009EBC900A7
:1057D00000EB091031688900B0FBF1F76420B7FBDA
:1057E000F0F004012009642101FB1078A88900F47D
:1057F000004040B1322000EBC800B0FBF1F000F0F7
:105800000700044308E0322000EB08106421B0FBDD
:10581000F1F000F00F0004432C81BDE8FF874FF446
:105820001651016000218180C18001810C214181DC
:1058300000218181704710B502460020108A20F4B3
:1058400070600B884C8823438C882343CC88234387
:105850001843108210BD0021018041808180C180E9
:10586000704721B1828942F40052828104E082892A
:105870004DF6FF731A4082817047028B02F47F421B
:105880000283028B0A430283704721B1828942F46A
:105890000042828103E08289C2F30E028281704756
:1058A00021B1828A42F40062828204E0828A4FF24D
:1058B000FF731A4082827047C1F3080282807047EA
:1058C00001468888C0F308007047028A4FF6F073DB
:1058D0001A400282028A0A430282704721B18289F9
:1058E00042F00202828104E082894FF6FD731A4081
:1058F0008281704782894FF2FF731A4082818289C8
:105900000A4382817047028A4FF6DF731A4002828F
:10591000028A0A430282704721B1028A42F480421D
:10592000028204E0028A4BF6FF731A40028270473B
:10593000818941F001018181704721B1828A42F061
:105940000802828204E0828A4FF6F7731A4082824C
:105950007047028BD2B20283028B42EA0122028399
:10596000704721B1828A42F02002828204E0828A5A
:105970004FF6DF731A408282704721B1828A42F06B
:105980001002828204E0828A4FF6EF731A4082820C
:105990007047828A4FF6FB731A408282828A0A43DA
:1059A0008282704721B1828A42F00202828204E040
:1059B000828A4FF6FD731A40828270471AB1838A39
:1059C0000B43838202E0838A8B4383827047F0B566
:1059D0000346002400260025002040F66A17B9423D
:1059E00000D100BF1846C1F3421401F01F06012781
:1059F00007FA06F5012C01D10C3004E0022C01D18C
:105A0000103000E014301AB107682F43076002E03D
:105A10000768AF430760F0BD02460020B1F5007F84
:105A200000D100BF13880B400BB1012000E0002023
:105A3000704701F40072B2F5007F00D100BFCA4385
:105A40000280704770B50246002400230025002024
:105A500040F66A16B14200D100BFC1F3421501F011
:105A60001F03012606FA03F3012D13D19689334053
:105A700017E00000001001400044004000480040D2
:105A8000004C0040005000400014014000780040ED
:105A9000007C0040022D02D1168A334001E0968A34
:105AA00033400C12012606FA04F41688344013B170
:105AB0000CB1012000E0002070BD10B500220023D1
:105AC00040F66A14A14200D100BF0A12012494409A
:105AD000A3B2DC43048010BD094880470948004751
